{
  "contractName": "PPV",
  "abi": [
    {
      "inputs": [],
      "payable": false,
      "stateMutability": "nonpayable",
      "type": "constructor"
    },
    {
      "constant": true,
      "inputs": [
        {
          "internalType": "uint256",
          "name": "",
          "type": "uint256"
        }
      ],
      "name": "videos",
      "outputs": [
        {
          "internalType": "uint256",
          "name": "",
          "type": "uint256"
        }
      ],
      "payable": false,
      "stateMutability": "view",
      "type": "function"
    },
    {
      "constant": true,
      "inputs": [],
      "name": "videosCount",
      "outputs": [
        {
          "internalType": "uint256",
          "name": "",
          "type": "uint256"
        }
      ],
      "payable": false,
      "stateMutability": "view",
      "type": "function"
    },
    {
      "constant": false,
      "inputs": [
        {
          "internalType": "uint256",
          "name": "_vidId",
          "type": "uint256"
        }
      ],
      "name": "rentVideo",
      "outputs": [],
      "payable": false,
      "stateMutability": "nonpayable",
      "type": "function"
    }
  ],
  "bytecode": "0x608060405234801561001057600080fd5b5061014c806100206000396000f3fe608060405234801561001057600080fd5b50600436106100415760003560e01c8063462ccdad14610046578063e6821bf514610074578063ef08523b146100b6575b600080fd5b6100726004803603602081101561005c57600080fd5b81019080803590602001909291905050506100d4565b005b6100a06004803603602081101561008a57600080fd5b81019080803590602001909291905050506100f9565b6040518082815260200191505060405180910390f35b6100be610111565b6040518082815260200191505060405180910390f35b6000808281526020019081526020016000206000815480929190600101919050555050565b60006020528060005260406000206000915090505481565b6001548156fea265627a7a723158208e7ee8d039f2418160a8672d60d4a41e9376110507f56e82e9dafbbb107a9f4064736f6c63430005100032",
  "source": "pragma solidity ^0.5.16;\r\n\r\ncontract PPV {\r\n\r\n    mapping(uint => uint) public videos;\r\n\r\n    uint public videosCount;\r\n\r\n    constructor () public {\r\n    }\r\n\r\n    function rentVideo (uint _vidId) public {\r\n        videos[_vidId] ++;\r\n    }\r\n}",
  "sourcePath": "Z:/DogeTube/DogeTube/contracts/PPV.sol",
  "compiler": {
    "name": "solc",
    "version": "0.5.16+commit.9c3226ce.Emscripten.clang"
  },
  "schemaVersion": "3.4.0",
  "updatedAt": "2021-05-01T09:03:20.640Z",
  "networkType": "ethereum",
  "devdoc": {
    "methods": {}
  },
  "userdoc": {
    "methods": {}
  }
}